{
  "_format": "hh-sol-artifact-1",
  "contractName": "MinaNft",
  "sourceName": "contracts/MinaNft.sol",
  "abi": [
    {
      "inputs": [],
      "stateMutability": "nonpayable",
      "type": "constructor"
    },
    {
      "anonymous": false,
      "inputs": [
        {
          "indexed": true,
          "internalType": "address",
          "name": "account",
          "type": "address"
        },
        {
          "indexed": true,
          "internalType": "address",
          "name": "operator",
          "type": "address"
        },
        {
          "indexed": false,
          "internalType": "bool",
          "name": "approved",
          "type": "bool"
        }
      ],
      "name": "ApprovalForAll",
      "type": "event"
    },
    {
      "anonymous": false,
      "inputs": [
        {
          "indexed": true,
          "internalType": "address",
          "name": "previousOwner",
          "type": "address"
        },
        {
          "indexed": true,
          "internalType": "address",
          "name": "newOwner",
          "type": "address"
        }
      ],
      "name": "OwnershipTransferred",
      "type": "event"
    },
    {
      "anonymous": false,
      "inputs": [
        {
          "indexed": false,
          "internalType": "address",
          "name": "account",
          "type": "address"
        }
      ],
      "name": "Paused",
      "type": "event"
    },
    {
      "anonymous": false,
      "inputs": [
        {
          "indexed": true,
          "internalType": "address",
          "name": "operator",
          "type": "address"
        },
        {
          "indexed": true,
          "internalType": "address",
          "name": "from",
          "type": "address"
        },
        {
          "indexed": true,
          "internalType": "address",
          "name": "to",
          "type": "address"
        },
        {
          "indexed": false,
          "internalType": "uint256[]",
          "name": "ids",
          "type": "uint256[]"
        },
        {
          "indexed": false,
          "internalType": "uint256[]",
          "name": "values",
          "type": "uint256[]"
        }
      ],
      "name": "TransferBatch",
      "type": "event"
    },
    {
      "anonymous": false,
      "inputs": [
        {
          "indexed": true,
          "internalType": "address",
          "name": "operator",
          "type": "address"
        },
        {
          "indexed": true,
          "internalType": "address",
          "name": "from",
          "type": "address"
        },
        {
          "indexed": true,
          "internalType": "address",
          "name": "to",
          "type": "address"
        },
        {
          "indexed": false,
          "internalType": "uint256",
          "name": "id",
          "type": "uint256"
        },
        {
          "indexed": false,
          "internalType": "uint256",
          "name": "value",
          "type": "uint256"
        }
      ],
      "name": "TransferSingle",
      "type": "event"
    },
    {
      "anonymous": false,
      "inputs": [
        {
          "indexed": false,
          "internalType": "string",
          "name": "value",
          "type": "string"
        },
        {
          "indexed": true,
          "internalType": "uint256",
          "name": "id",
          "type": "uint256"
        }
      ],
      "name": "URI",
      "type": "event"
    },
    {
      "anonymous": false,
      "inputs": [
        {
          "indexed": false,
          "internalType": "address",
          "name": "account",
          "type": "address"
        }
      ],
      "name": "Unpaused",
      "type": "event"
    },
    {
      "inputs": [],
      "name": "Tier_1",
      "outputs": [
        {
          "internalType": "uint256",
          "name": "",
          "type": "uint256"
        }
      ],
      "stateMutability": "view",
      "type": "function"
    },
    {
      "inputs": [],
      "name": "Tier_2",
      "outputs": [
        {
          "internalType": "uint256",
          "name": "",
          "type": "uint256"
        }
      ],
      "stateMutability": "view",
      "type": "function"
    },
    {
      "inputs": [],
      "name": "Tier_3",
      "outputs": [
        {
          "internalType": "uint256",
          "name": "",
          "type": "uint256"
        }
      ],
      "stateMutability": "view",
      "type": "function"
    },
    {
      "inputs": [],
      "name": "Tier_4",
      "outputs": [
        {
          "internalType": "uint256",
          "name": "",
          "type": "uint256"
        }
      ],
      "stateMutability": "view",
      "type": "function"
    },
    {
      "inputs": [],
      "name": "Tier_5",
      "outputs": [
        {
          "internalType": "uint256",
          "name": "",
          "type": "uint256"
        }
      ],
      "stateMutability": "view",
      "type": "function"
    },
    {
      "inputs": [],
      "name": "Tier_6",
      "outputs": [
        {
          "internalType": "uint256",
          "name": "",
          "type": "uint256"
        }
      ],
      "stateMutability": "view",
      "type": "function"
    },
    {
      "inputs": [],
      "name": "Tier_7",
      "outputs": [
        {
          "internalType": "uint256",
          "name": "",
          "type": "uint256"
        }
      ],
      "stateMutability": "view",
      "type": "function"
    },
    {
      "inputs": [
        {
          "internalType": "address",
          "name": "account",
          "type": "address"
        },
        {
          "internalType": "uint256",
          "name": "id",
          "type": "uint256"
        }
      ],
      "name": "balanceOf",
      "outputs": [
        {
          "internalType": "uint256",
          "name": "",
          "type": "uint256"
        }
      ],
      "stateMutability": "view",
      "type": "function"
    },
    {
      "inputs": [
        {
          "internalType": "address[]",
          "name": "accounts",
          "type": "address[]"
        },
        {
          "internalType": "uint256[]",
          "name": "ids",
          "type": "uint256[]"
        }
      ],
      "name": "balanceOfBatch",
      "outputs": [
        {
          "internalType": "uint256[]",
          "name": "",
          "type": "uint256[]"
        }
      ],
      "stateMutability": "view",
      "type": "function"
    },
    {
      "inputs": [
        {
          "internalType": "address",
          "name": "account",
          "type": "address"
        },
        {
          "internalType": "address",
          "name": "operator",
          "type": "address"
        }
      ],
      "name": "isApprovedForAll",
      "outputs": [
        {
          "internalType": "bool",
          "name": "",
          "type": "bool"
        }
      ],
      "stateMutability": "view",
      "type": "function"
    },
    {
      "inputs": [],
      "name": "owner",
      "outputs": [
        {
          "internalType": "address",
          "name": "",
          "type": "address"
        }
      ],
      "stateMutability": "view",
      "type": "function"
    },
    {
      "inputs": [],
      "name": "pause",
      "outputs": [],
      "stateMutability": "nonpayable",
      "type": "function"
    },
    {
      "inputs": [],
      "name": "paused",
      "outputs": [
        {
          "internalType": "bool",
          "name": "",
          "type": "bool"
        }
      ],
      "stateMutability": "view",
      "type": "function"
    },
    {
      "inputs": [],
      "name": "renounceOwnership",
      "outputs": [],
      "stateMutability": "nonpayable",
      "type": "function"
    },
    {
      "inputs": [
        {
          "internalType": "address",
          "name": "from",
          "type": "address"
        },
        {
          "internalType": "address",
          "name": "to",
          "type": "address"
        },
        {
          "internalType": "uint256[]",
          "name": "ids",
          "type": "uint256[]"
        },
        {
          "internalType": "uint256[]",
          "name": "amounts",
          "type": "uint256[]"
        },
        {
          "internalType": "bytes",
          "name": "data",
          "type": "bytes"
        }
      ],
      "name": "safeBatchTransferFrom",
      "outputs": [],
      "stateMutability": "nonpayable",
      "type": "function"
    },
    {
      "inputs": [
        {
          "internalType": "address",
          "name": "from",
          "type": "address"
        },
        {
          "internalType": "address",
          "name": "to",
          "type": "address"
        },
        {
          "internalType": "uint256",
          "name": "id",
          "type": "uint256"
        },
        {
          "internalType": "uint256",
          "name": "amount",
          "type": "uint256"
        },
        {
          "internalType": "bytes",
          "name": "data",
          "type": "bytes"
        }
      ],
      "name": "safeTransferFrom",
      "outputs": [],
      "stateMutability": "nonpayable",
      "type": "function"
    },
    {
      "inputs": [
        {
          "internalType": "address",
          "name": "operator",
          "type": "address"
        },
        {
          "internalType": "bool",
          "name": "approved",
          "type": "bool"
        }
      ],
      "name": "setApprovalForAll",
      "outputs": [],
      "stateMutability": "nonpayable",
      "type": "function"
    },
    {
      "inputs": [
        {
          "internalType": "bytes4",
          "name": "interfaceId",
          "type": "bytes4"
        }
      ],
      "name": "supportsInterface",
      "outputs": [
        {
          "internalType": "bool",
          "name": "",
          "type": "bool"
        }
      ],
      "stateMutability": "view",
      "type": "function"
    },
    {
      "inputs": [
        {
          "internalType": "address",
          "name": "newOwner",
          "type": "address"
        }
      ],
      "name": "transferOwnership",
      "outputs": [],
      "stateMutability": "nonpayable",
      "type": "function"
    },
    {
      "inputs": [],
      "name": "unpause",
      "outputs": [],
      "stateMutability": "nonpayable",
      "type": "function"
    },
    {
      "inputs": [
        {
          "internalType": "uint256",
          "name": "_tokenid",
          "type": "uint256"
        }
      ],
      "name": "uri",
      "outputs": [
        {
          "internalType": "string",
          "name": "",
          "type": "string"
        }
      ],
      "stateMutability": "pure",
      "type": "function"
    }
  ],
  "bytecode": "0x60806040523480156200001157600080fd5b506040518060800160405280605a815260200162004159605a91396200003d816200018560201b60201c565b506200005e62000052620001a160201b60201c565b620001a960201b60201c565b6000600360146101000a81548160ff0219169083151502179055506200009f3360016161a8604051806020016040528060008152506200026f60201b60201c565b620000c5336002611b58604051806020016040528060008152506200026f60201b60201c565b620000eb3360036101f4604051806020016040528060008152506200026f60201b60201c565b620001103360046005604051806020016040528060008152506200026f60201b60201c565b620001353360056003604051806020016040528060008152506200026f60201b60201c565b6200015a3360066002604051806020016040528060008152506200026f60201b60201c565b6200017f3360076001604051806020016040528060008152506200026f60201b60201c565b62000f6e565b80600290805190602001906200019d92919062000777565b5050565b600033905090565b6000600360009054906101000a900473ffffffffffffffffffffffffffffffffffffffff16905081600360006101000a81548173ffffffffffffffffffffffffffffffffffffffff021916908373ffffffffffffffffffffffffffffffffffffffff1602179055508173ffffffffffffffffffffffffffffffffffffffff168173ffffffffffffffffffffffffffffffffffffffff167f8be0079c531659141344cd1fd0a4f28419497f9722a3daafe3b4186f6b6457e060405160405180910390a35050565b600073ffffffffffffffffffffffffffffffffffffffff168473ffffffffffffffffffffffffffffffffffffffff161415620002e2576040517f08c379a0000000000000000000000000000000000000000000000000000000008152600401620002d99062000a9e565b60405180910390fd5b6000620002f4620001a160201b60201c565b90506200032d816000876200030f886200043460201b60201c565b62000320886200043460201b60201c565b87620004b560201b60201c565b8260008086815260200190815260200160002060008773ffffffffffffffffffffffffffffffffffffffff1673ffffffffffffffffffffffffffffffffffffffff16815260200190815260200160002060008282546200038e919062000b2f565b925050819055508473ffffffffffffffffffffffffffffffffffffffff16600073ffffffffffffffffffffffffffffffffffffffff168273ffffffffffffffffffffffffffffffffffffffff167fc3d58168c5ae7397731d063d5bbf3d657854427343f4c083240f7aacaa2d0f6287876040516200040e92919062000ac0565b60405180910390a46200042d816000878787876200052b60201b60201c565b5050505050565b60606000600167ffffffffffffffff81111562000456576200045562000d25565b5b604051908082528060200260200182016040528015620004855781602001602082028036833780820191505090505b5090508281600081518110620004a0576200049f62000cf6565b5b60200260200101818152505080915050919050565b620004c56200073560201b60201c565b1562000508576040517f08c379a0000000000000000000000000000000000000000000000000000000008152600401620004ff9062000a7c565b60405180910390fd5b620005238686868686866200074c60201b62000b981760201c565b505050505050565b620005578473ffffffffffffffffffffffffffffffffffffffff166200075460201b62000ba01760201c565b156200072d578373ffffffffffffffffffffffffffffffffffffffff1663f23a6e6187878686866040518663ffffffff1660e01b8152600401620005a0959493929190620009b0565b602060405180830381600087803b158015620005bb57600080fd5b505af1925050508015620005ef57506040513d601f19601f82011682018060405250810190620005ec91906200083e565b60015b620006a157620005fe62000d54565b806308c379a014156200066257506200061662000eb2565b8062000623575062000664565b806040517f08c379a000000000000000000000000000000000000000000000000000000000815260040162000659919062000a14565b60405180910390fd5b505b6040517f08c379a0000000000000000000000000000000000000000000000000000000008152600401620006989062000a38565b60405180910390fd5b63f23a6e6160e01b7bffffffffffffffffffffffffffffffffffffffffffffffffffffffff1916817bffffffffffffffffffffffffffffffffffffffffffffffffffffffff1916146200072b576040517f08c379a0000000000000000000000000000000000000000000000000000000008152600401620007229062000a5a565b60405180910390fd5b505b505050505050565b6000600360149054906101000a900460ff16905090565b505050505050565b6000808273ffffffffffffffffffffffffffffffffffffffff163b119050919050565b828054620007859062000c2c565b90600052602060002090601f016020900481019282620007a95760008555620007f5565b82601f10620007c457805160ff1916838001178555620007f5565b82800160010185558215620007f5579182015b82811115620007f4578251825591602001919060010190620007d7565b5b50905062000804919062000808565b5090565b5b808211156200082357600081600090555060010162000809565b5090565b600081519050620008388162000f54565b92915050565b60006020828403121562000857576200085662000d79565b5b6000620008678482850162000827565b91505092915050565b6200087b8162000b8c565b82525050565b60006200088e8262000af7565b6200089a818562000b0d565b9350620008ac81856020860162000bf6565b620008b78162000d7e565b840191505092915050565b6000620008cf8262000b02565b620008db818562000b1e565b9350620008ed81856020860162000bf6565b620008f88162000d7e565b840191505092915050565b60006200091260348362000b1e565b91506200091f8262000d9c565b604082019050919050565b60006200093960288362000b1e565b9150620009468262000deb565b604082019050919050565b60006200096060108362000b1e565b91506200096d8262000e3a565b602082019050919050565b60006200098760218362000b1e565b9150620009948262000e63565b604082019050919050565b620009aa8162000bec565b82525050565b600060a082019050620009c7600083018862000870565b620009d6602083018762000870565b620009e560408301866200099f565b620009f460608301856200099f565b818103608083015262000a08818462000881565b90509695505050505050565b6000602082019050818103600083015262000a308184620008c2565b905092915050565b6000602082019050818103600083015262000a538162000903565b9050919050565b6000602082019050818103600083015262000a75816200092a565b9050919050565b6000602082019050818103600083015262000a978162000951565b9050919050565b6000602082019050818103600083015262000ab98162000978565b9050919050565b600060408201905062000ad760008301856200099f565b62000ae660208301846200099f565b9392505050565b6000604051905090565b600081519050919050565b600081519050919050565b600082825260208201905092915050565b600082825260208201905092915050565b600062000b3c8262000bec565b915062000b498362000bec565b9250827fffffffffffffffffffffffffffffffffffffffffffffffffffffffffffffffff0382111562000b815762000b8062000c98565b5b828201905092915050565b600062000b998262000bcc565b9050919050565b60007fffffffff0000000000000000000000000000000000000000000000000000000082169050919050565b600073ffffffffffffffffffffffffffffffffffffffff82169050919050565b6000819050919050565b60005b8381101562000c1657808201518184015260208101905062000bf9565b8381111562000c26576000848401525b50505050565b6000600282049050600182168062000c4557607f821691505b6020821081141562000c5c5762000c5b62000cc7565b5b50919050565b62000c6d8262000d7e565b810181811067ffffffffffffffff8211171562000c8f5762000c8e62000d25565b5b80604052505050565b7f4e487b7100000000000000000000000000000000000000000000000000000000600052601160045260246000fd5b7f4e487b7100000000000000000000000000000000000000000000000000000000600052602260045260246000fd5b7f4e487b7100000000000000000000000000000000000000000000000000000000600052603260045260246000fd5b7f4e487b7100000000000000000000000000000000000000000000000000000000600052604160045260246000fd5b600060033d111562000d765760046000803e62000d7360005162000d8f565b90505b90565b600080fd5b6000601f19601f8301169050919050565b60008160e01c9050919050565b7f455243313135353a207472616e7366657220746f206e6f6e204552433131353560008201527f526563656976657220696d706c656d656e746572000000000000000000000000602082015250565b7f455243313135353a204552433131353552656365697665722072656a6563746560008201527f6420746f6b656e73000000000000000000000000000000000000000000000000602082015250565b7f5061757361626c653a2070617573656400000000000000000000000000000000600082015250565b7f455243313135353a206d696e7420746f20746865207a65726f2061646472657360008201527f7300000000000000000000000000000000000000000000000000000000000000602082015250565b600060443d101562000ec45762000f51565b62000ece62000aed565b60043d036004823e80513d602482011167ffffffffffffffff8211171562000ef857505062000f51565b808201805167ffffffffffffffff81111562000f18575050505062000f51565b80602083010160043d03850181111562000f3757505050505062000f51565b62000f488260200185018662000c62565b82955050505050505b90565b62000f5f8162000ba0565b811462000f6b57600080fd5b50565b6131db8062000f7e6000396000f3fe608060405234801561001057600080fd5b50600436106101365760003560e01c8063715018a6116100b8578063b7fe4a5f1161007c578063b7fe4a5f14610305578063e09c1a6514610323578063e985e9c514610341578063f242432a14610371578063f2fde38b1461038d578063f89accef146103a957610136565b8063715018a6146102995780638456cb59146102a35780638da5cb5b146102ad578063a22cb465146102cb578063ae1594b5146102e757610136565b80633f4ba83a116100ff5780633f4ba83a146102055780634b5673c41461020f5780634e1273f41461022d5780635c975abb1461025d5780636a9019501461027b57610136565b8062fdd58e1461013b57806301ffc9a71461016b5780630e89341c1461019b578063130f7a6f146101cb5780632eb2c2d6146101e9575b600080fd5b61015560048036038101906101509190611f72565b6103c7565b6040516101629190612796565b60405180910390f35b6101856004803603810190610180919061202a565b610490565b6040516101929190612599565b60405180910390f35b6101b560048036038101906101b09190612084565b610572565b6040516101c291906125b4565b60405180910390f35b6101d36105a3565b6040516101e09190612796565b60405180910390f35b61020360048036038101906101fe9190611dcc565b6105a8565b005b61020d610649565b005b6102176106cf565b6040516102249190612796565b60405180910390f35b61024760048036038101906102429190611fb2565b6106d4565b6040516102549190612540565b60405180910390f35b6102656107ed565b6040516102729190612599565b60405180910390f35b610283610804565b6040516102909190612796565b60405180910390f35b6102a1610809565b005b6102ab610891565b005b6102b5610917565b6040516102c29190612463565b60405180910390f35b6102e560048036038101906102e09190611f32565b610941565b005b6102ef610957565b6040516102fc9190612796565b60405180910390f35b61030d61095c565b60405161031a9190612796565b60405180910390f35b61032b610961565b6040516103389190612796565b60405180910390f35b61035b60048036038101906103569190611d8c565b610966565b6040516103689190612599565b60405180910390f35b61038b60048036038101906103869190611e9b565b6109fa565b005b6103a760048036038101906103a29190611d5f565b610a9b565b005b6103b1610b93565b6040516103be9190612796565b60405180910390f35b60008073ffffffffffffffffffffffffffffffffffffffff168373ffffffffffffffffffffffffffffffffffffffff161415610438576040517f08c379a000000000000000000000000000000000000000000000000000000000815260040161042f90612636565b60405180910390fd5b60008083815260200190815260200160002060008473ffffffffffffffffffffffffffffffffffffffff1673ffffffffffffffffffffffffffffffffffffffff16815260200190815260200160002054905092915050565b60007fd9b67a26000000000000000000000000000000000000000000000000000000007bffffffffffffffffffffffffffffffffffffffffffffffffffffffff1916827bffffffffffffffffffffffffffffffffffffffffffffffffffffffff1916148061055b57507f0e89341c000000000000000000000000000000000000000000000000000000007bffffffffffffffffffffffffffffffffffffffffffffffffffffffff1916827bffffffffffffffffffffffffffffffffffffffffffffffffffffffff1916145b8061056b575061056a82610bc3565b5b9050919050565b606061057d82610c2d565b60405160200161058d9190612436565b6040516020818303038152906040529050919050565b600481565b6105b0610d8e565b73ffffffffffffffffffffffffffffffffffffffff168573ffffffffffffffffffffffffffffffffffffffff1614806105f657506105f5856105f0610d8e565b610966565b5b610635576040517f08c379a000000000000000000000000000000000000000000000000000000000815260040161062c906126d6565b60405180910390fd5b6106428585858585610d96565b5050505050565b610651610d8e565b73ffffffffffffffffffffffffffffffffffffffff1661066f610917565b73ffffffffffffffffffffffffffffffffffffffff16146106c5576040517f08c379a00000000000000000000000000000000000000000000000000000000081526004016106bc90612716565b60405180910390fd5b6106cd6110aa565b565b600781565b6060815183511461071a576040517f08c379a000000000000000000000000000000000000000000000000000000000815260040161071190612756565b60405180910390fd5b6000835167ffffffffffffffff81111561073757610736612bad565b5b6040519080825280602002602001820160405280156107655781602001602082028036833780820191505090505b50905060005b84518110156107e2576107b285828151811061078a57610789612b7e565b5b60200260200101518583815181106107a5576107a4612b7e565b5b60200260200101516103c7565b8282815181106107c5576107c4612b7e565b5b602002602001018181525050806107db90612aa6565b905061076b565b508091505092915050565b6000600360149054906101000a900460ff16905090565b600181565b610811610d8e565b73ffffffffffffffffffffffffffffffffffffffff1661082f610917565b73ffffffffffffffffffffffffffffffffffffffff1614610885576040517f08c379a000000000000000000000000000000000000000000000000000000000815260040161087c90612716565b60405180910390fd5b61088f600061114c565b565b610899610d8e565b73ffffffffffffffffffffffffffffffffffffffff166108b7610917565b73ffffffffffffffffffffffffffffffffffffffff161461090d576040517f08c379a000000000000000000000000000000000000000000000000000000000815260040161090490612716565b60405180910390fd5b610915611212565b565b6000600360009054906101000a900473ffffffffffffffffffffffffffffffffffffffff16905090565b61095361094c610d8e565b83836112b5565b5050565b600581565b600381565b600681565b6000600160008473ffffffffffffffffffffffffffffffffffffffff1673ffffffffffffffffffffffffffffffffffffffff16815260200190815260200160002060008373ffffffffffffffffffffffffffffffffffffffff1673ffffffffffffffffffffffffffffffffffffffff16815260200190815260200160002060009054906101000a900460ff16905092915050565b610a02610d8e565b73ffffffffffffffffffffffffffffffffffffffff168573ffffffffffffffffffffffffffffffffffffffff161480610a485750610a4785610a42610d8e565b610966565b5b610a87576040517f08c379a0000000000000000000000000000000000000000000000000000000008152600401610a7e90612676565b60405180910390fd5b610a948585858585611422565b5050505050565b610aa3610d8e565b73ffffffffffffffffffffffffffffffffffffffff16610ac1610917565b73ffffffffffffffffffffffffffffffffffffffff1614610b17576040517f08c379a0000000000000000000000000000000000000000000000000000000008152600401610b0e90612716565b60405180910390fd5b600073ffffffffffffffffffffffffffffffffffffffff168173ffffffffffffffffffffffffffffffffffffffff161415610b87576040517f08c379a0000000000000000000000000000000000000000000000000000000008152600401610b7e90612656565b60405180910390fd5b610b908161114c565b50565b600281565b505050505050565b6000808273ffffffffffffffffffffffffffffffffffffffff163b119050919050565b60007f01ffc9a7000000000000000000000000000000000000000000000000000000007bffffffffffffffffffffffffffffffffffffffffffffffffffffffff1916827bffffffffffffffffffffffffffffffffffffffffffffffffffffffff1916149050919050565b60606000821415610c75576040518060400160405280600181526020017f30000000000000000000000000000000000000000000000000000000000000008152509050610d89565b600082905060005b60008214610ca7578080610c9090612aa6565b915050600a82610ca0919061295a565b9150610c7d565b60008167ffffffffffffffff811115610cc357610cc2612bad565b5b6040519080825280601f01601f191660200182016040528015610cf55781602001600182028036833780820191505090505b5090505b60008514610d8257600182610d0e919061298b565b9150600a85610d1d9190612aef565b6030610d299190612904565b60f81b818381518110610d3f57610d3e612b7e565b5b60200101907effffffffffffffffffffffffffffffffffffffffffffffffffffffffffffff1916908160001a905350600a85610d7b919061295a565b9450610cf9565b8093505050505b919050565b600033905090565b8151835114610dda576040517f08c379a0000000000000000000000000000000000000000000000000000000008152600401610dd190612776565b60405180910390fd5b600073ffffffffffffffffffffffffffffffffffffffff168473ffffffffffffffffffffffffffffffffffffffff161415610e4a576040517f08c379a0000000000000000000000000000000000000000000000000000000008152600401610e41906126b6565b60405180910390fd5b6000610e54610d8e565b9050610e648187878787876116a4565b60005b8451811015611015576000858281518110610e8557610e84612b7e565b5b602002602001015190506000858381518110610ea457610ea3612b7e565b5b60200260200101519050600080600084815260200190815260200160002060008b73ffffffffffffffffffffffffffffffffffffffff1673ffffffffffffffffffffffffffffffffffffffff16815260200190815260200160002054905081811015610f45576040517f08c379a0000000000000000000000000000000000000000000000000000000008152600401610f3c906126f6565b60405180910390fd5b81810360008085815260200190815260200160002060008c73ffffffffffffffffffffffffffffffffffffffff1673ffffffffffffffffffffffffffffffffffffffff168152602001908152602001600020819055508160008085815260200190815260200160002060008b73ffffffffffffffffffffffffffffffffffffffff1673ffffffffffffffffffffffffffffffffffffffff1681526020019081526020016000206000828254610ffa9190612904565b925050819055505050508061100e90612aa6565b9050610e67565b508473ffffffffffffffffffffffffffffffffffffffff168673ffffffffffffffffffffffffffffffffffffffff168273ffffffffffffffffffffffffffffffffffffffff167f4a39dc06d4c0dbc64b70af90fd698a233a518aa5d07e595d983b8c0526c8f7fb878760405161108c929190612562565b60405180910390a46110a2818787878787611702565b505050505050565b6110b26107ed565b6110f1576040517f08c379a00000000000000000000000000000000000000000000000000000000081526004016110e890612616565b60405180910390fd5b6000600360146101000a81548160ff0219169083151502179055507f5db9ee0a495bf2e6ff9c91a7834c1ba4fdd244a5e8aa4e537bd38aeae4b073aa611135610d8e565b6040516111429190612463565b60405180910390a1565b6000600360009054906101000a900473ffffffffffffffffffffffffffffffffffffffff16905081600360006101000a81548173ffffffffffffffffffffffffffffffffffffffff021916908373ffffffffffffffffffffffffffffffffffffffff1602179055508173ffffffffffffffffffffffffffffffffffffffff168173ffffffffffffffffffffffffffffffffffffffff167f8be0079c531659141344cd1fd0a4f28419497f9722a3daafe3b4186f6b6457e060405160405180910390a35050565b61121a6107ed565b1561125a576040517f08c379a000000000000000000000000000000000000000000000000000000000815260040161125190612696565b60405180910390fd5b6001600360146101000a81548160ff0219169083151502179055507f62e78cea01bee320cd4e420270b5ea74000d11b0c9f74754ebdbfc544b05a25861129e610d8e565b6040516112ab9190612463565b60405180910390a1565b8173ffffffffffffffffffffffffffffffffffffffff168373ffffffffffffffffffffffffffffffffffffffff161415611324576040517f08c379a000000000000000000000000000000000000000000000000000000000815260040161131b90612736565b60405180910390fd5b80600160008573ffffffffffffffffffffffffffffffffffffffff1673ffffffffffffffffffffffffffffffffffffffff16815260200190815260200160002060008473ffffffffffffffffffffffffffffffffffffffff1673ffffffffffffffffffffffffffffffffffffffff16815260200190815260200160002060006101000a81548160ff0219169083151502179055508173ffffffffffffffffffffffffffffffffffffffff168373ffffffffffffffffffffffffffffffffffffffff167f17307eab39ab6107e8899845ad3d59bd9653f200f220920489ca2b5937696c31836040516114159190612599565b60405180910390a3505050565b600073ffffffffffffffffffffffffffffffffffffffff168473ffffffffffffffffffffffffffffffffffffffff161415611492576040517f08c379a0000000000000000000000000000000000000000000000000000000008152600401611489906126b6565b60405180910390fd5b600061149c610d8e565b90506114bc8187876114ad886118e9565b6114b6886118e9565b876116a4565b600080600086815260200190815260200160002060008873ffffffffffffffffffffffffffffffffffffffff1673ffffffffffffffffffffffffffffffffffffffff16815260200190815260200160002054905083811015611553576040517f08c379a000000000000000000000000000000000000000000000000000000000815260040161154a906126f6565b60405180910390fd5b83810360008087815260200190815260200160002060008973ffffffffffffffffffffffffffffffffffffffff1673ffffffffffffffffffffffffffffffffffffffff168152602001908152602001600020819055508360008087815260200190815260200160002060008873ffffffffffffffffffffffffffffffffffffffff1673ffffffffffffffffffffffffffffffffffffffff16815260200190815260200160002060008282546116089190612904565b925050819055508573ffffffffffffffffffffffffffffffffffffffff168773ffffffffffffffffffffffffffffffffffffffff168373ffffffffffffffffffffffffffffffffffffffff167fc3d58168c5ae7397731d063d5bbf3d657854427343f4c083240f7aacaa2d0f6288886040516116859291906127b1565b60405180910390a461169b828888888888611963565b50505050505050565b6116ac6107ed565b156116ec576040517f08c379a00000000000000000000000000000000000000000000000000000000081526004016116e390612696565b60405180910390fd5b6116fa868686868686610b98565b505050505050565b6117218473ffffffffffffffffffffffffffffffffffffffff16610ba0565b156118e1578373ffffffffffffffffffffffffffffffffffffffff1663bc197c8187878686866040518663ffffffff1660e01b815260040161176795949392919061247e565b602060405180830381600087803b15801561178157600080fd5b505af19250505080156117b257506040513d601f19601f820116820180604052508101906117af9190612057565b60015b611858576117be612bdc565b806308c379a0141561181b57506117d36130b3565b806117de575061181d565b806040517f08c379a000000000000000000000000000000000000000000000000000000000815260040161181291906125b4565b60405180910390fd5b505b6040517f08c379a000000000000000000000000000000000000000000000000000000000815260040161184f906125d6565b60405180910390fd5b63bc197c8160e01b7bffffffffffffffffffffffffffffffffffffffffffffffffffffffff1916817bffffffffffffffffffffffffffffffffffffffffffffffffffffffff1916146118df576040517f08c379a00000000000000000000000000000000000000000000000000000000081526004016118d6906125f6565b60405180910390fd5b505b505050505050565b60606000600167ffffffffffffffff81111561190857611907612bad565b5b6040519080825280602002602001820160405280156119365781602001602082028036833780820191505090505b509050828160008151811061194e5761194d612b7e565b5b60200260200101818152505080915050919050565b6119828473ffffffffffffffffffffffffffffffffffffffff16610ba0565b15611b42578373ffffffffffffffffffffffffffffffffffffffff1663f23a6e6187878686866040518663ffffffff1660e01b81526004016119c89594939291906124e6565b602060405180830381600087803b1580156119e257600080fd5b505af1925050508015611a1357506040513d601f19601f82011682018060405250810190611a109190612057565b60015b611ab957611a1f612bdc565b806308c379a01415611a7c5750611a346130b3565b80611a3f5750611a7e565b806040517f08c379a0000000000000000000000000000000000000000000000000000000008152600401611a7391906125b4565b60405180910390fd5b505b6040517f08c379a0000000000000000000000000000000000000000000000000000000008152600401611ab0906125d6565b60405180910390fd5b63f23a6e6160e01b7bffffffffffffffffffffffffffffffffffffffffffffffffffffffff1916817bffffffffffffffffffffffffffffffffffffffffffffffffffffffff191614611b40576040517f08c379a0000000000000000000000000000000000000000000000000000000008152600401611b37906125f6565b60405180910390fd5b505b505050505050565b6000611b5d611b58846127ff565b6127da565b90508083825260208201905082856020860282011115611b8057611b7f612c03565b5b60005b85811015611bb05781611b968882611c6c565b845260208401935060208301925050600181019050611b83565b5050509392505050565b6000611bcd611bc88461282b565b6127da565b90508083825260208201905082856020860282011115611bf057611bef612c03565b5b60005b85811015611c205781611c068882611d4a565b845260208401935060208301925050600181019050611bf3565b5050509392505050565b6000611c3d611c3884612857565b6127da565b905082815260208101848484011115611c5957611c58612c08565b5b611c64848285612a33565b509392505050565b600081359050611c7b81613149565b92915050565b600082601f830112611c9657611c95612bfe565b5b8135611ca6848260208601611b4a565b91505092915050565b600082601f830112611cc457611cc3612bfe565b5b8135611cd4848260208601611bba565b91505092915050565b600081359050611cec81613160565b92915050565b600081359050611d0181613177565b92915050565b600081519050611d1681613177565b92915050565b600082601f830112611d3157611d30612bfe565b5b8135611d41848260208601611c2a565b91505092915050565b600081359050611d598161318e565b92915050565b600060208284031215611d7557611d74612c12565b5b6000611d8384828501611c6c565b91505092915050565b60008060408385031215611da357611da2612c12565b5b6000611db185828601611c6c565b9250506020611dc285828601611c6c565b9150509250929050565b600080600080600060a08688031215611de857611de7612c12565b5b6000611df688828901611c6c565b9550506020611e0788828901611c6c565b945050604086013567ffffffffffffffff811115611e2857611e27612c0d565b5b611e3488828901611caf565b935050606086013567ffffffffffffffff811115611e5557611e54612c0d565b5b611e6188828901611caf565b925050608086013567ffffffffffffffff811115611e8257611e81612c0d565b5b611e8e88828901611d1c565b9150509295509295909350565b600080600080600060a08688031215611eb757611eb6612c12565b5b6000611ec588828901611c6c565b9550506020611ed688828901611c6c565b9450506040611ee788828901611d4a565b9350506060611ef888828901611d4a565b925050608086013567ffffffffffffffff811115611f1957611f18612c0d565b5b611f2588828901611d1c565b9150509295509295909350565b60008060408385031215611f4957611f48612c12565b5b6000611f5785828601611c6c565b9250506020611f6885828601611cdd565b9150509250929050565b60008060408385031215611f8957611f88612c12565b5b6000611f9785828601611c6c565b9250506020611fa885828601611d4a565b9150509250929050565b60008060408385031215611fc957611fc8612c12565b5b600083013567ffffffffffffffff811115611fe757611fe6612c0d565b5b611ff385828601611c81565b925050602083013567ffffffffffffffff81111561201457612013612c0d565b5b61202085828601611caf565b9150509250929050565b6000602082840312156120405761203f612c12565b5b600061204e84828501611cf2565b91505092915050565b60006020828403121561206d5761206c612c12565b5b600061207b84828501611d07565b91505092915050565b60006020828403121561209a57612099612c12565b5b60006120a884828501611d4a565b91505092915050565b60006120bd8383612418565b60208301905092915050565b6120d2816129bf565b82525050565b60006120e382612898565b6120ed81856128c6565b93506120f883612888565b8060005b8381101561212957815161211088826120b1565b975061211b836128b9565b9250506001810190506120fc565b5085935050505092915050565b61213f816129d1565b82525050565b6000612150826128a3565b61215a81856128d7565b935061216a818560208601612a42565b61217381612c17565b840191505092915050565b6000612189826128ae565b61219381856128e8565b93506121a3818560208601612a42565b6121ac81612c17565b840191505092915050565b60006121c2826128ae565b6121cc81856128f9565b93506121dc818560208601612a42565b80840191505092915050565b60006121f56034836128e8565b915061220082612c35565b604082019050919050565b60006122186028836128e8565b915061222382612c84565b604082019050919050565b600061223b6014836128e8565b915061224682612cd3565b602082019050919050565b600061225e602b836128e8565b915061226982612cfc565b604082019050919050565b60006122816026836128e8565b915061228c82612d4b565b604082019050919050565b60006122a46029836128e8565b91506122af82612d9a565b604082019050919050565b60006122c76010836128e8565b91506122d282612de9565b602082019050919050565b60006122ea6051836128f9565b91506122f582612e12565b605182019050919050565b600061230d6025836128e8565b915061231882612e87565b604082019050919050565b60006123306032836128e8565b915061233b82612ed6565b604082019050919050565b6000612353602a836128e8565b915061235e82612f25565b604082019050919050565b60006123766005836128f9565b915061238182612f74565b600582019050919050565b60006123996020836128e8565b91506123a482612f9d565b602082019050919050565b60006123bc6029836128e8565b91506123c782612fc6565b604082019050919050565b60006123df6029836128e8565b91506123ea82613015565b604082019050919050565b60006124026028836128e8565b915061240d82613064565b604082019050919050565b61242181612a29565b82525050565b61243081612a29565b82525050565b6000612441826122dd565b915061244d82846121b7565b915061245882612369565b915081905092915050565b600060208201905061247860008301846120c9565b92915050565b600060a08201905061249360008301886120c9565b6124a060208301876120c9565b81810360408301526124b281866120d8565b905081810360608301526124c681856120d8565b905081810360808301526124da8184612145565b90509695505050505050565b600060a0820190506124fb60008301886120c9565b61250860208301876120c9565b6125156040830186612427565b6125226060830185612427565b81810360808301526125348184612145565b90509695505050505050565b6000602082019050818103600083015261255a81846120d8565b905092915050565b6000604082019050818103600083015261257c81856120d8565b9050818103602083015261259081846120d8565b90509392505050565b60006020820190506125ae6000830184612136565b92915050565b600060208201905081810360008301526125ce818461217e565b905092915050565b600060208201905081810360008301526125ef816121e8565b9050919050565b6000602082019050818103600083015261260f8161220b565b9050919050565b6000602082019050818103600083015261262f8161222e565b9050919050565b6000602082019050818103600083015261264f81612251565b9050919050565b6000602082019050818103600083015261266f81612274565b9050919050565b6000602082019050818103600083015261268f81612297565b9050919050565b600060208201905081810360008301526126af816122ba565b9050919050565b600060208201905081810360008301526126cf81612300565b9050919050565b600060208201905081810360008301526126ef81612323565b9050919050565b6000602082019050818103600083015261270f81612346565b9050919050565b6000602082019050818103600083015261272f8161238c565b9050919050565b6000602082019050818103600083015261274f816123af565b9050919050565b6000602082019050818103600083015261276f816123d2565b9050919050565b6000602082019050818103600083015261278f816123f5565b9050919050565b60006020820190506127ab6000830184612427565b92915050565b60006040820190506127c66000830185612427565b6127d36020830184612427565b9392505050565b60006127e46127f5565b90506127f08282612a75565b919050565b6000604051905090565b600067ffffffffffffffff82111561281a57612819612bad565b5b602082029050602081019050919050565b600067ffffffffffffffff82111561284657612845612bad565b5b602082029050602081019050919050565b600067ffffffffffffffff82111561287257612871612bad565b5b61287b82612c17565b9050602081019050919050565b6000819050602082019050919050565b600081519050919050565b600081519050919050565b600081519050919050565b6000602082019050919050565b600082825260208201905092915050565b600082825260208201905092915050565b600082825260208201905092915050565b600081905092915050565b600061290f82612a29565b915061291a83612a29565b9250827fffffffffffffffffffffffffffffffffffffffffffffffffffffffffffffffff0382111561294f5761294e612b20565b5b828201905092915050565b600061296582612a29565b915061297083612a29565b9250826129805761297f612b4f565b5b828204905092915050565b600061299682612a29565b91506129a183612a29565b9250828210156129b4576129b3612b20565b5b828203905092915050565b60006129ca82612a09565b9050919050565b60008115159050919050565b60007fffffffff0000000000000000000000000000000000000000000000000000000082169050919050565b600073ffffffffffffffffffffffffffffffffffffffff82169050919050565b6000819050919050565b82818337600083830152505050565b60005b83811015612a60578082015181840152602081019050612a45565b83811115612a6f576000848401525b50505050565b612a7e82612c17565b810181811067ffffffffffffffff82111715612a9d57612a9c612bad565b5b80604052505050565b6000612ab182612a29565b91507fffffffffffffffffffffffffffffffffffffffffffffffffffffffffffffffff821415612ae457612ae3612b20565b5b600182019050919050565b6000612afa82612a29565b9150612b0583612a29565b925082612b1557612b14612b4f565b5b828206905092915050565b7f4e487b7100000000000000000000000000000000000000000000000000000000600052601160045260246000fd5b7f4e487b7100000000000000000000000000000000000000000000000000000000600052601260045260246000fd5b7f4e487b7100000000000000000000000000000000000000000000000000000000600052603260045260246000fd5b7f4e487b7100000000000000000000000000000000000000000000000000000000600052604160045260246000fd5b600060033d1115612bfb5760046000803e612bf8600051612c28565b90505b90565b600080fd5b600080fd5b600080fd5b600080fd5b600080fd5b6000601f19601f8301169050919050565b60008160e01c9050919050565b7f455243313135353a207472616e7366657220746f206e6f6e204552433131353560008201527f526563656976657220696d706c656d656e746572000000000000000000000000602082015250565b7f455243313135353a204552433131353552656365697665722072656a6563746560008201527f6420746f6b656e73000000000000000000000000000000000000000000000000602082015250565b7f5061757361626c653a206e6f7420706175736564000000000000000000000000600082015250565b7f455243313135353a2062616c616e636520717565727920666f7220746865207a60008201527f65726f2061646472657373000000000000000000000000000000000000000000602082015250565b7f4f776e61626c653a206e6577206f776e657220697320746865207a65726f206160008201527f6464726573730000000000000000000000000000000000000000000000000000602082015250565b7f455243313135353a2063616c6c6572206973206e6f74206f776e6572206e6f7260008201527f20617070726f7665640000000000000000000000000000000000000000000000602082015250565b7f5061757361626c653a2070617573656400000000000000000000000000000000600082015250565b7f68747470733a2f2f697066732e696f2f697066732f626166796265696535696160008201527f737a6d767872326b746c353432347037736c7569717836646d3769676762736860208201527f33757a676a626c6e36727078686361342f000000000000000000000000000000604082015250565b7f455243313135353a207472616e7366657220746f20746865207a65726f20616460008201527f6472657373000000000000000000000000000000000000000000000000000000602082015250565b7f455243313135353a207472616e736665722063616c6c6572206973206e6f742060008201527f6f776e6572206e6f7220617070726f7665640000000000000000000000000000602082015250565b7f455243313135353a20696e73756666696369656e742062616c616e636520666f60008201527f72207472616e7366657200000000000000000000000000000000000000000000602082015250565b7f2e6a736f6e000000000000000000000000000000000000000000000000000000600082015250565b7f4f776e61626c653a2063616c6c6572206973206e6f7420746865206f776e6572600082015250565b7f455243313135353a2073657474696e6720617070726f76616c2073746174757360008201527f20666f722073656c660000000000000000000000000000000000000000000000602082015250565b7f455243313135353a206163636f756e747320616e6420696473206c656e67746860008201527f206d69736d617463680000000000000000000000000000000000000000000000602082015250565b7f455243313135353a2069647320616e6420616d6f756e7473206c656e6774682060008201527f6d69736d61746368000000000000000000000000000000000000000000000000602082015250565b600060443d10156130c357613146565b6130cb6127f5565b60043d036004823e80513d602482011167ffffffffffffffff821117156130f3575050613146565b808201805167ffffffffffffffff8111156131115750505050613146565b80602083010160043d03850181111561312e575050505050613146565b61313d82602001850186612a75565b82955050505050505b90565b613152816129bf565b811461315d57600080fd5b50565b613169816129d1565b811461317457600080fd5b50565b613180816129dd565b811461318b57600080fd5b50565b61319781612a29565b81146131a257600080fd5b5056fea26469706673582212208a24a801ec182cdc52b954bcf514d7b65034d3eaedda9c055a27643703302ef264736f6c6343000807003368747470733a2f2f697066732e696f2f697066732f6261667962656965356961737a6d767872326b746c353432347037736c7569717836646d3769676762736833757a676a626c6e36727078686361342f7b69647d2e6a736f6e",
  "linkReferences": {},
  "deployedLinkReferences": {}
}